:1000000019C028C027C026C025C024C023C022C0D4
:1000100021C020C01FC033C01DC01CC01BC01AC0DF
:1000200019C018C0C2C016C0F7C014C013C012C097
:1000300011C010C011241FBECFEFD2E0DEBFCDBF74
:1000400011E0A0E0B1E001C01D92A53BB107E1F7CE
:1000500055D0EBC1D5CF109202011092070110923A
:10006000060182E080936F008AE08093810088EC33
:1000700090E090938900809388003B9A08951F92A6
:100080000F920FB60F9211248F939F9380910201CC
:100090008F5F8093020188B198E0892788B99F918A
:1000A0008F910F900FBE0F901F90189580910601B1
:1000B000909107010196909307018093060127E232
:1000C0008031920721F4109207011092060180916D
:1000D000000190910101019690930101809300012C
:1000E000809106019091070168E873E18AD1009739
:1000F00021F485B191E0892785B908951F93ABDF7D
:10010000209A31D0109201011092000178941BEFD7
:1001100080910201882339F08091020181508093FF
:100120000201C4DFF5CF3FD1882391F34AD18093F8
:100130000901843269F78091000190910101909347
:100140000B0180930A0110920101109200018B3F74
:10015000910518F48093090102C010930901809160
:100160000901C1D0D5CFE1ECF0E088E180831092A5
:10017000C50080E18093C40086E08093C200808146
:10018000806880831092600110925F0110920D01CF
:1001900010920C011092B4011092B30110926201FE
:1001A0001092610110925E0108951F920F920FB696
:1001B0000F9211242F933F938F939F93EF93FF936D
:1001C00080915F019091600101969093600180930E
:1001D0005F018035910521F41092600110925F015A
:1001E00080915F019091600120910C0130910D018F
:1001F0008217930731F02091C600825F9E4FFC0169
:100200002083FF91EF919F918F913F912F910F90BC
:100210000FBE0F901F9018951F920F920FB60F925E
:1002200011242F933F938F939F93EF93FF9380918C
:100230006101909162012091B3013091B4012817BE
:100240003907B1F001969093620180936101803586
:10025000910521F41092620110926101E091610117
:10026000F0916201ED59FE4F80818093C60007C076
:100270008091C1008F7B8093C10010925E01FF913D
:10028000EF919F918F913F912F910F900FBE0F9003
:100290001F9018952091B3013091B40180916101B4
:1002A0009091620128173907E9F021E020935E015F
:1002B0002091C10020642093C100019690936201B7
:1002C000809361018035910521F4109262011092B2
:1002D0006101E0916101F0916201ED59FE4F808171
:1002E0008093C60008952091B3013091B4012F5F2F
:1002F0003F4F3093B4012093B3012035310521F4F1
:100300001092B4011092B3012091B3013091B40165
:1003100040916101509162012417350721F02D5958
:100320003E4FF901808380915E01882309F4B2DF9A
:100330000895FC012BC02091B3013091B4012F5FCF
:100340003F4F3093B4012093B3012035310521F4A0
:100350001092B4011092B3018091B3019091B40155
:1003600020916101309162018217930731F08D591C
:100370009E4F2191DC012C9309C01092B401109280
:10038000B301109262011092610103C08081882341
:1003900091F680915E01882309F47CDF08958091B5
:1003A000C0008074089581E040915F015091600128
:1003B00020910C0130910D014217530709F480E0A0
:1003C000089580910C0190910D01019690930D017B
:1003D00080930C018035910521F410920D0110924B
:1003E0000C01E0910C01F0910D01E25FFE4F808164
:1003F000089502C08091C6008091C00087FDFACFA9
:100400000895AA1BBB1B51E107C0AA1FBB1FA6175B
:10041000B70710F0A61BB70B881F991F5A95A9F7AD
:0E04200080959095BC01CD010895F894FFCF12
:00000001FF
