:1000000019C028C027C026C025C024C023C022C0D4
:1000100021C020C01FC02FC01DC01CC01BC01AC0E3
:1000200019C018C0C3C016C0F8C014C013C012C095
:1000300011C010C011241FBECFEFD2E0DEBFCDBF74
:1000400011E0A0E0B1E001C01D92A13BB107E1F7D2
:1000500029D0F3C1D5CF1092070182E080936F00C1
:100060008AE08093810087EC90E0909389008093F0
:100070008800219A08951F920F920FB60F921124B3
:100080008F939F93809107018F5F8093070185B1C4
:1000900092E0892785B99F918F910F900FBE0F90A5
:1000A0001F9018950F931F93CF93DF93D4DF209A5F
:1000B0005BD0109201011092000110920601109283
:1000C00005017894C8E8D3E101E01BEF80910701B6
:1000D000882351F18091070181508093070180911D
:1000E0000501909106010196909306018093050108
:1000F00080910001909101010196909301018093FC
:10010000000127E28031920721F410920101109240
:1001100000018091000190910101BE017AD1009708
:1001200019F485B1802785B946D1882379F251D158
:1001300080930401843251F680910501909106016B
:100140009093030180930201109206011092050121
:100150008B3F910518F48093040102C010930401B1
:1001600080910401E7D0B2CFE1ECF0E088E1808338
:100170001092C50080E18093C40086E08093C200A5
:1001800080818068808310925C0110925B011092E4
:100190000901109208011092B0011092AF01109263
:1001A0005E0110925D0110925A0108951F920F9204
:1001B0000FB60F9211242F933F938F939F93EF933A
:1001C000FF9380915B0190915C01019690935C019B
:1001D00080935B018035910521F410925C011092AF
:1001E0005B0180915B0190915C012091080130914D
:1001F00009018217930731F02091C600865F9E4F58
:10020000FC012083FF91EF919F918F913F912F915E
:100210000F900FBE0F901F9018951F920F920FB660
:100220000F9211242F933F938F939F93EF93FF93FC
:1002300080915D0190915E012091AF013091B001FC
:1002400028173907B1F0019690935E0180935D0104
:100250008035910521F410925E0110925D01E091CC
:100260005D01F0915E01E15AFE4F80818093C600EE
:1002700007C08091C1008F7B8093C10010925A010A
:10028000FF91EF919F918F913F912F910F900FBE12
:100290000F901F9018952091AF013091B00180917F
:1002A0005D0190915E0128173907E9F021E0209364
:1002B0005A012091C10020642093C10001969093BF
:1002C0005E0180935D018035910521F410925E01FD
:1002D00010925D01E0915D01F0915E01E15AFE4FE7
:1002E00080818093C60008952091AF013091B001C4
:1002F0002F5F3F4F3093B0012093AF012035310580
:1003000021F41092B0011092AF012091AF01309111
:10031000B00140915D0150915E012417350721F035
:10032000215A3E4FF901808380915A01882309F4B4
:10033000B2DF08959091C00095FFFCCF8093C60076
:100340000895FC012BC02091AF013091B0012F5FC7
:100350003F4F3093B0012093AF012035310521F498
:100360001092B0011092AF018091AF019091B00155
:1003700020915D0130915E018217930731F0815A1F
:100380009E4F2191DC012C9309C01092B001109274
:10039000AF0110925E0110925D0103C0808188233D
:1003A00091F680915A01882309F475DF08958091B0
:1003B000C0008074089581E040915B0150915C0120
:1003C00020910801309109014217530709F480E098
:1003D0000895809108019091090101969093090177
:1003E000809308018035910521F410920901109243
:1003F0000801E0910801F0910901E65FFE4F80815C
:10040000089502C08091C6008091C00087FDFACF98
:100410000895AA1BBB1B51E107C0AA1FBB1FA6174B
:10042000B70710F0A61BB70B881F991F5A95A9F79D
:0E04300080959095BC01CD010895F894FFCF02
:00000001FF
